{
  "_format": "hh-sol-artifact-1",
  "contractName": "TestnetDC8NFT",
  "sourceName": "contracts/TestnetDC8NFT.sol",
  "abi": [
    {
      "inputs": [],
      "stateMutability": "nonpayable",
      "type": "constructor"
    },
    {
      "anonymous": false,
      "inputs": [
        {
          "indexed": true,
          "internalType": "address",
          "name": "account",
          "type": "address"
        },
        {
          "indexed": true,
          "internalType": "address",
          "name": "operator",
          "type": "address"
        },
        {
          "indexed": false,
          "internalType": "bool",
          "name": "approved",
          "type": "bool"
        }
      ],
      "name": "ApprovalForAll",
      "type": "event"
    },
    {
      "anonymous": false,
      "inputs": [
        {
          "indexed": true,
          "internalType": "address",
          "name": "operator",
          "type": "address"
        },
        {
          "indexed": true,
          "internalType": "address",
          "name": "from",
          "type": "address"
        },
        {
          "indexed": true,
          "internalType": "address",
          "name": "to",
          "type": "address"
        },
        {
          "indexed": false,
          "internalType": "uint256[]",
          "name": "ids",
          "type": "uint256[]"
        },
        {
          "indexed": false,
          "internalType": "uint256[]",
          "name": "values",
          "type": "uint256[]"
        }
      ],
      "name": "TransferBatch",
      "type": "event"
    },
    {
      "anonymous": false,
      "inputs": [
        {
          "indexed": true,
          "internalType": "address",
          "name": "operator",
          "type": "address"
        },
        {
          "indexed": true,
          "internalType": "address",
          "name": "from",
          "type": "address"
        },
        {
          "indexed": true,
          "internalType": "address",
          "name": "to",
          "type": "address"
        },
        {
          "indexed": false,
          "internalType": "uint256",
          "name": "id",
          "type": "uint256"
        },
        {
          "indexed": false,
          "internalType": "uint256",
          "name": "value",
          "type": "uint256"
        }
      ],
      "name": "TransferSingle",
      "type": "event"
    },
    {
      "anonymous": false,
      "inputs": [
        {
          "indexed": false,
          "internalType": "string",
          "name": "value",
          "type": "string"
        },
        {
          "indexed": true,
          "internalType": "uint256",
          "name": "id",
          "type": "uint256"
        }
      ],
      "name": "URI",
      "type": "event"
    },
    {
      "anonymous": false,
      "inputs": [
        {
          "indexed": false,
          "internalType": "uint256",
          "name": "tokenId",
          "type": "uint256"
        },
        {
          "indexed": false,
          "internalType": "uint256",
          "name": "price",
          "type": "uint256"
        },
        {
          "indexed": false,
          "internalType": "string",
          "name": "mode",
          "type": "string"
        }
      ],
      "name": "nftEvents",
      "type": "event"
    },
    {
      "anonymous": false,
      "inputs": [
        {
          "indexed": false,
          "internalType": "uint256",
          "name": "package",
          "type": "uint256"
        },
        {
          "indexed": false,
          "internalType": "uint256",
          "name": "price",
          "type": "uint256"
        },
        {
          "indexed": false,
          "internalType": "string",
          "name": "mode",
          "type": "string"
        }
      ],
      "name": "packageEvents",
      "type": "event"
    },
    {
      "inputs": [
        {
          "internalType": "uint256",
          "name": "_quantity",
          "type": "uint256"
        }
      ],
      "name": "adminMintNFTs",
      "outputs": [],
      "stateMutability": "nonpayable",
      "type": "function"
    },
    {
      "inputs": [
        {
          "internalType": "uint256",
          "name": "mode",
          "type": "uint256"
        },
        {
          "internalType": "bool",
          "name": "allowed",
          "type": "bool"
        }
      ],
      "name": "allowRule",
      "outputs": [],
      "stateMutability": "payable",
      "type": "function"
    },
    {
      "inputs": [
        {
          "internalType": "address",
          "name": "account",
          "type": "address"
        },
        {
          "internalType": "uint256",
          "name": "id",
          "type": "uint256"
        }
      ],
      "name": "balanceOf",
      "outputs": [
        {
          "internalType": "uint256",
          "name": "",
          "type": "uint256"
        }
      ],
      "stateMutability": "view",
      "type": "function"
    },
    {
      "inputs": [
        {
          "internalType": "address[]",
          "name": "accounts",
          "type": "address[]"
        },
        {
          "internalType": "uint256[]",
          "name": "ids",
          "type": "uint256[]"
        }
      ],
      "name": "balanceOfBatch",
      "outputs": [
        {
          "internalType": "uint256[]",
          "name": "",
          "type": "uint256[]"
        }
      ],
      "stateMutability": "view",
      "type": "function"
    },
    {
      "inputs": [
        {
          "internalType": "uint256",
          "name": "pkCode",
          "type": "uint256"
        }
      ],
      "name": "buyPrivatePackage",
      "outputs": [],
      "stateMutability": "payable",
      "type": "function"
    },
    {
      "inputs": [
        {
          "internalType": "uint256",
          "name": "pkCode",
          "type": "uint256"
        }
      ],
      "name": "buyPublicPackage",
      "outputs": [],
      "stateMutability": "payable",
      "type": "function"
    },
    {
      "inputs": [
        {
          "internalType": "uint256",
          "name": "tokenId",
          "type": "uint256"
        }
      ],
      "name": "cancelListing",
      "outputs": [],
      "stateMutability": "payable",
      "type": "function"
    },
    {
      "inputs": [
        {
          "internalType": "address",
          "name": "sender",
          "type": "address"
        }
      ],
      "name": "fetchMyNftIDs",
      "outputs": [
        {
          "internalType": "uint256[]",
          "name": "",
          "type": "uint256[]"
        }
      ],
      "stateMutability": "view",
      "type": "function"
    },
    {
      "inputs": [
        {
          "internalType": "address payable",
          "name": "user",
          "type": "address"
        }
      ],
      "name": "fetchMyPackages",
      "outputs": [
        {
          "components": [
            {
              "internalType": "uint256",
              "name": "packageId",
              "type": "uint256"
            },
            {
              "internalType": "uint256",
              "name": "amount",
              "type": "uint256"
            },
            {
              "internalType": "uint256",
              "name": "quantity",
              "type": "uint256"
            }
          ],
          "internalType": "struct TestnetDC8NFT.PackageItem[]",
          "name": "",
          "type": "tuple[]"
        }
      ],
      "stateMutability": "view",
      "type": "function"
    },
    {
      "inputs": [],
      "name": "getCurrentTokenId",
      "outputs": [
        {
          "internalType": "uint256",
          "name": "",
          "type": "uint256"
        }
      ],
      "stateMutability": "view",
      "type": "function"
    },
    {
      "inputs": [
        {
          "internalType": "address",
          "name": "account",
          "type": "address"
        },
        {
          "internalType": "address",
          "name": "operator",
          "type": "address"
        }
      ],
      "name": "isApprovedForAll",
      "outputs": [
        {
          "internalType": "bool",
          "name": "",
          "type": "bool"
        }
      ],
      "stateMutability": "view",
      "type": "function"
    },
    {
      "inputs": [
        {
          "internalType": "uint256",
          "name": "tokenId",
          "type": "uint256"
        },
        {
          "internalType": "uint256",
          "name": "price",
          "type": "uint256"
        }
      ],
      "name": "listNft",
      "outputs": [],
      "stateMutability": "payable",
      "type": "function"
    },
    {
      "inputs": [],
      "name": "name",
      "outputs": [
        {
          "internalType": "string",
          "name": "",
          "type": "string"
        }
      ],
      "stateMutability": "view",
      "type": "function"
    },
    {
      "inputs": [
        {
          "internalType": "uint256",
          "name": "pkCode",
          "type": "uint256"
        }
      ],
      "name": "openPackage",
      "outputs": [],
      "stateMutability": "payable",
      "type": "function"
    },
    {
      "inputs": [
        {
          "internalType": "uint256",
          "name": "tokenId",
          "type": "uint256"
        }
      ],
      "name": "ownerOf",
      "outputs": [
        {
          "internalType": "bool",
          "name": "",
          "type": "bool"
        }
      ],
      "stateMutability": "view",
      "type": "function"
    },
    {
      "inputs": [
        {
          "internalType": "uint256",
          "name": "tokenId",
          "type": "uint256"
        }
      ],
      "name": "purchaseNft",
      "outputs": [],
      "stateMutability": "payable",
      "type": "function"
    },
    {
      "inputs": [
        {
          "internalType": "address",
          "name": "from",
          "type": "address"
        },
        {
          "internalType": "address",
          "name": "to",
          "type": "address"
        },
        {
          "internalType": "uint256[]",
          "name": "ids",
          "type": "uint256[]"
        },
        {
          "internalType": "uint256[]",
          "name": "amounts",
          "type": "uint256[]"
        },
        {
          "internalType": "bytes",
          "name": "data",
          "type": "bytes"
        }
      ],
      "name": "safeBatchTransferFrom",
      "outputs": [],
      "stateMutability": "nonpayable",
      "type": "function"
    },
    {
      "inputs": [
        {
          "internalType": "address",
          "name": "from",
          "type": "address"
        },
        {
          "internalType": "address",
          "name": "to",
          "type": "address"
        },
        {
          "internalType": "uint256",
          "name": "id",
          "type": "uint256"
        },
        {
          "internalType": "uint256",
          "name": "amount",
          "type": "uint256"
        },
        {
          "internalType": "bytes",
          "name": "data",
          "type": "bytes"
        }
      ],
      "name": "safeTransferFrom",
      "outputs": [],
      "stateMutability": "nonpayable",
      "type": "function"
    },
    {
      "inputs": [
        {
          "internalType": "address",
          "name": "operator",
          "type": "address"
        },
        {
          "internalType": "bool",
          "name": "approved",
          "type": "bool"
        }
      ],
      "name": "setApprovalForAll",
      "outputs": [],
      "stateMutability": "nonpayable",
      "type": "function"
    },
    {
      "inputs": [
        {
          "internalType": "uint256",
          "name": "tokenId",
          "type": "uint256"
        },
        {
          "internalType": "string",
          "name": "tokenURI",
          "type": "string"
        }
      ],
      "name": "setURI",
      "outputs": [],
      "stateMutability": "nonpayable",
      "type": "function"
    },
    {
      "inputs": [
        {
          "internalType": "bytes4",
          "name": "interfaceId",
          "type": "bytes4"
        }
      ],
      "name": "supportsInterface",
      "outputs": [
        {
          "internalType": "bool",
          "name": "",
          "type": "bool"
        }
      ],
      "stateMutability": "view",
      "type": "function"
    },
    {
      "inputs": [
        {
          "internalType": "uint256",
          "name": "tokenId",
          "type": "uint256"
        },
        {
          "internalType": "address",
          "name": "receiver",
          "type": "address"
        }
      ],
      "name": "transferNft",
      "outputs": [],
      "stateMutability": "payable",
      "type": "function"
    },
    {
      "inputs": [
        {
          "internalType": "uint256",
          "name": "tokenId",
          "type": "uint256"
        }
      ],
      "name": "uri",
      "outputs": [
        {
          "internalType": "string",
          "name": "",
          "type": "string"
        }
      ],
      "stateMutability": "view",
      "type": "function"
    }
  ],
  "bytecode": "0x608060405260405180602001604052806000815250600390805190602001906200002b92919062000a50565b506000600760006101000a81548160ff0219169083151502179055506000600760016101000a81548160ff0219169083151502179055506001600760026101000a81548160ff021916908315150217905550604051806060016040528060218152602001620071ea6021913960089080519060200190620000ae92919062000a50565b50348015620000bc57600080fd5b506040518060400160405280600781526020017f444338204e4654000000000000000000000000000000000000000000000000008152506200010481620001e460201b60201c565b5033600760036101000a81548173ffffffffffffffffffffffffffffffffffffffff021916908373ffffffffffffffffffffffffffffffffffffffff16021790555060006200019381600862000165846200020060201b62001d1f1760201c565b6040516020016200017892919062000d24565b6040516020818303038152906040526200037a60201b60201c565b620001dd338260016040518060400160405280600381526020017f30783000000000000000000000000000000000000000000000000000000000008152506200039060201b60201c565b5062001407565b8060029080519060200190620001fc92919062000a50565b5050565b606060008214156200024a576040518060400160405280600181526020017f3000000000000000000000000000000000000000000000000000000000000000815250905062000375565b600082905060005b60008214620002825780806200026890620010a5565b915050600a826200027a919062000f26565b915062000252565b60008167ffffffffffffffff811115620002a157620002a0620011e7565b5b6040519080825280601f01601f191660200182016040528015620002d45781602001600182028036833780820191505090505b5090505b600085146200036e57600182620002f0919062000f5e565b9150600a85620003019190620010f3565b60306200030f919062000ec9565b60f81b818381518110620003285762000327620011b8565b5b60200101907effffffffffffffffffffffffffffffffffffffffffffffffffffffffffffff1916908160001a905350600a8562000366919062000f26565b9450620002d8565b8093505050505b919050565b6200038c82826200057860201b60201c565b5050565b600073ffffffffffffffffffffffffffffffffffffffff168473ffffffffffffffffffffffffffffffffffffffff16141562000403576040517f08c379a0000000000000000000000000000000000000000000000000000000008152600401620003fa9062000e18565b60405180910390fd5b600062000415620005f060201b60201c565b905060006200042a85620005f860201b60201c565b905060006200043f85620005f860201b60201c565b905062000458836000898585896200067960201b60201c565b8460008088815260200190815260200160002060008973ffffffffffffffffffffffffffffffffffffffff1673ffffffffffffffffffffffffffffffffffffffff1681526020019081526020016000206000828254620004b9919062000ec9565b925050819055508673ffffffffffffffffffffffffffffffffffffffff16600073ffffffffffffffffffffffffffffffffffffffff168473ffffffffffffffffffffffffffffffffffffffff167fc3d58168c5ae7397731d063d5bbf3d657854427343f4c083240f7aacaa2d0f6289896040516200053992919062000e3a565b60405180910390a462000558836000898585896200068160201b60201c565b6200056f836000898989896200068960201b60201c565b50505050505050565b80600460008481526020019081526020016000209080519060200190620005a192919062000a50565b50817f6bb7ff708619ba0610cba295a58592e0451dee2622938c8755667688daf3529b620005d5846200089360201b60201c565b604051620005e4919062000db0565b60405180910390a25050565b600033905090565b60606000600167ffffffffffffffff8111156200061a5762000619620011e7565b5b604051908082528060200260200182016040528015620006495781602001602082028036833780820191505090505b5090508281600081518110620006645762000663620011b8565b5b60200260200101818152505080915050919050565b505050505050565b505050505050565b620006b58473ffffffffffffffffffffffffffffffffffffffff166200099160201b62001e801760201c565b156200088b578373ffffffffffffffffffffffffffffffffffffffff1663f23a6e6187878686866040518663ffffffff1660e01b8152600401620006fe95949392919062000d4c565b602060405180830381600087803b1580156200071957600080fd5b505af19250505080156200074d57506040513d601f19601f820116820180604052508101906200074a919062000b17565b60015b620007ff576200075c62001216565b806308c379a01415620007c05750620007746200134b565b80620007815750620007c2565b806040517f08c379a0000000000000000000000000000000000000000000000000000000008152600401620007b7919062000db0565b60405180910390fd5b505b6040517f08c379a0000000000000000000000000000000000000000000000000000000008152600401620007f69062000dd4565b60405180910390fd5b63f23a6e6160e01b7bffffffffffffffffffffffffffffffffffffffffffffffffffffffff1916817bffffffffffffffffffffffffffffffffffffffffffffffffffffffff19161462000889576040517f08c379a0000000000000000000000000000000000000000000000000000000008152600401620008809062000df6565b60405180910390fd5b505b505050505050565b60606000600460008481526020019081526020016000208054620008b79062001039565b80601f0160208091040260200160405190810160405280929190818152602001828054620008e59062001039565b8015620009365780601f106200090a5761010080835404028352916020019162000936565b820191906000526020600020905b8154815290600101906020018083116200091857829003601f168201915b50505050509050600081511162000963576200095d83620009b460201b62001ea31760201c565b62000989565b6003816040516020016200097992919062000d24565b6040516020818303038152906040525b915050919050565b6000808273ffffffffffffffffffffffffffffffffffffffff163b119050919050565b606060028054620009c59062001039565b80601f0160208091040260200160405190810160405280929190818152602001828054620009f39062001039565b801562000a445780601f1062000a185761010080835404028352916020019162000a44565b820191906000526020600020905b81548152906001019060200180831162000a2657829003601f168201915b50505050509050919050565b82805462000a5e9062001039565b90600052602060002090601f01602090048101928262000a82576000855562000ace565b82601f1062000a9d57805160ff191683800117855562000ace565b8280016001018555821562000ace579182015b8281111562000acd57825182559160200191906001019062000ab0565b5b50905062000add919062000ae1565b5090565b5b8082111562000afc57600081600090555060010162000ae2565b5090565b60008151905062000b1181620013ed565b92915050565b60006020828403121562000b305762000b2f6200123b565b5b600062000b408482850162000b00565b91505092915050565b62000b548162000f99565b82525050565b600062000b678262000e86565b62000b73818562000e9c565b935062000b8581856020860162001003565b62000b908162001240565b840191505092915050565b600062000ba88262000e91565b62000bb4818562000ead565b935062000bc681856020860162001003565b62000bd18162001240565b840191505092915050565b600062000be98262000e91565b62000bf5818562000ebe565b935062000c0781856020860162001003565b80840191505092915050565b6000815462000c228162001039565b62000c2e818662000ebe565b9450600182166000811462000c4c576001811462000c5e5762000c95565b60ff1983168652818601935062000c95565b62000c698562000e71565b60005b8381101562000c8d5781548189015260018201915060208101905062000c6c565b838801955050505b50505092915050565b600062000cad60348362000ead565b915062000cba826200125e565b604082019050919050565b600062000cd460288362000ead565b915062000ce182620012ad565b604082019050919050565b600062000cfb60218362000ead565b915062000d0882620012fc565b604082019050919050565b62000d1e8162000ff9565b82525050565b600062000d32828562000c13565b915062000d40828462000bdc565b91508190509392505050565b600060a08201905062000d63600083018862000b49565b62000d72602083018762000b49565b62000d81604083018662000d13565b62000d90606083018562000d13565b818103608083015262000da4818462000b5a565b90509695505050505050565b6000602082019050818103600083015262000dcc818462000b9b565b905092915050565b6000602082019050818103600083015262000def8162000c9e565b9050919050565b6000602082019050818103600083015262000e118162000cc5565b9050919050565b6000602082019050818103600083015262000e338162000cec565b9050919050565b600060408201905062000e51600083018562000d13565b62000e60602083018462000d13565b9392505050565b6000604051905090565b60008190508160005260206000209050919050565b600081519050919050565b600081519050919050565b600082825260208201905092915050565b600082825260208201905092915050565b600081905092915050565b600062000ed68262000ff9565b915062000ee38362000ff9565b9250827fffffffffffffffffffffffffffffffffffffffffffffffffffffffffffffffff0382111562000f1b5762000f1a6200112b565b5b828201905092915050565b600062000f338262000ff9565b915062000f408362000ff9565b92508262000f535762000f526200115a565b5b828204905092915050565b600062000f6b8262000ff9565b915062000f788362000ff9565b92508282101562000f8e5762000f8d6200112b565b5b828203905092915050565b600062000fa68262000fd9565b9050919050565b60007fffffffff0000000000000000000000000000000000000000000000000000000082169050919050565b600073ffffffffffffffffffffffffffffffffffffffff82169050919050565b6000819050919050565b60005b838110156200102357808201518184015260208101905062001006565b8381111562001033576000848401525b50505050565b600060028204905060018216806200105257607f821691505b6020821081141562001069576200106862001189565b5b50919050565b6200107a8262001240565b810181811067ffffffffffffffff821117156200109c576200109b620011e7565b5b80604052505050565b6000620010b28262000ff9565b91507fffffffffffffffffffffffffffffffffffffffffffffffffffffffffffffffff821415620010e857620010e76200112b565b5b600182019050919050565b6000620011008262000ff9565b91506200110d8362000ff9565b92508262001120576200111f6200115a565b5b828206905092915050565b7f4e487b7100000000000000000000000000000000000000000000000000000000600052601160045260246000fd5b7f4e487b7100000000000000000000000000000000000000000000000000000000600052601260045260246000fd5b7f4e487b7100000000000000000000000000000000000000000000000000000000600052602260045260246000fd5b7f4e487b7100000000000000000000000000000000000000000000000000000000600052603260045260246000fd5b7f4e487b7100000000000000000000000000000000000000000000000000000000600052604160045260246000fd5b600060033d1115620012385760046000803e6200123560005162001251565b90505b90565b600080fd5b6000601f19601f8301169050919050565b60008160e01c9050919050565b7f455243313135353a207472616e7366657220746f206e6f6e204552433131353560008201527f526563656976657220696d706c656d656e746572000000000000000000000000602082015250565b7f455243313135353a204552433131353552656365697665722072656a6563746560008201527f6420746f6b656e73000000000000000000000000000000000000000000000000602082015250565b7f455243313135353a206d696e7420746f20746865207a65726f2061646472657360008201527f7300000000000000000000000000000000000000000000000000000000000000602082015250565b600060443d10156200135d57620013ea565b6200136762000e67565b60043d036004823e80513d602482011167ffffffffffffffff8211171562001391575050620013ea565b808201805167ffffffffffffffff811115620013b15750505050620013ea565b80602083010160043d038501811115620013d0575050505050620013ea565b620013e1826020018501866200106f565b82955050505050505b90565b620013f88162000fad565b81146200140457600080fd5b50565b615dd380620014176000396000f3fe60806040526004361061013f5760003560e01c806369373ceb116100b6578063aadd52301161006f578063aadd52301461044c578063d4e6152214610475578063e708d9b414610491578063e985e9c5146104ad578063f242432a146104ea578063fe8723e1146105135761013f565b806369373ceb146103695780636bb02fcd14610385578063862440e2146103a157806393bd2ad0146103ca578063a22cb46514610407578063a2e66bfc146104305761013f565b8063305a67a811610108578063305a67a81461024f5780633c5efcc81461026b5780634e1273f4146102a8578063510c1b00146102e557806356189236146103015780636352211e1461032c5761013f565b8062fdd58e1461014457806301ffc9a71461018157806306fdde03146101be5780630e89341c146101e95780632eb2c2d614610226575b600080fd5b34801561015057600080fd5b5061016b60048036038101906101669190613e9c565b61052f565b6040516101789190614d72565b60405180910390f35b34801561018d57600080fd5b506101a860048036038101906101a39190613f54565b6105f8565b6040516101b591906149f5565b60405180910390f35b3480156101ca57600080fd5b506101d36106da565b6040516101e09190614a10565b60405180910390f35b3480156101f557600080fd5b50610210600480360381019061020b9190613fae565b610713565b60405161021d9190614a10565b60405180910390f35b34801561023257600080fd5b5061024d60048036038101906102489190613cf6565b6107f8565b005b61026960048036038101906102649190613fae565b610899565b005b34801561027757600080fd5b50610292600480360381019061028d9190613c89565b610ad5565b60405161029f919061497a565b60405180910390f35b3480156102b457600080fd5b506102cf60048036038101906102ca9190613edc565b610c5e565b6040516102dc919061499c565b60405180910390f35b6102ff60048036038101906102fa9190613fae565b610d77565b005b34801561030d57600080fd5b50610316610fb0565b6040516103239190614d72565b60405180910390f35b34801561033857600080fd5b50610353600480360381019061034e9190613fae565b610fc1565b60405161036091906149f5565b60405180910390f35b610383600480360381019061037e9190613fae565b611057565b005b61039f600480360381019061039a9190614008565b6112a2565b005b3480156103ad57600080fd5b506103c860048036038101906103c39190614088565b611308565b005b3480156103d657600080fd5b506103f160048036038101906103ec9190613c5c565b611316565b6040516103fe919061499c565b60405180910390f35b34801561041357600080fd5b5061042e60048036038101906104299190613e5c565b611450565b005b61044a60048036038101906104459190613fae565b611466565b005b34801561045857600080fd5b50610473600480360381019061046e9190613fae565b6116c9565b005b61048f600480360381019061048a9190613fae565b611765565b005b6104ab60048036038101906104a69190614048565b61199f565b005b3480156104b957600080fd5b506104d460048036038101906104cf9190613cb6565b611a9f565b6040516104e191906149f5565b60405180910390f35b3480156104f657600080fd5b50610511600480360381019061050c9190613dc5565b611b33565b005b61052d600480360381019061052891906140e4565b611bd4565b005b60008073ffffffffffffffffffffffffffffffffffffffff168373ffffffffffffffffffffffffffffffffffffffff1614156105a0576040517f08c379a000000000000000000000000000000000000000000000000000000000815260040161059790614ad2565b60405180910390fd5b60008083815260200190815260200160002060008473ffffffffffffffffffffffffffffffffffffffff1673ffffffffffffffffffffffffffffffffffffffff16815260200190815260200160002054905092915050565b60007fd9b67a26000000000000000000000000000000000000000000000000000000007bffffffffffffffffffffffffffffffffffffffffffffffffffffffff1916827bffffffffffffffffffffffffffffffffffffffffffffffffffffffff191614806106c357507f0e89341c000000000000000000000000000000000000000000000000000000007bffffffffffffffffffffffffffffffffffffffffffffffffffffffff1916827bffffffffffffffffffffffffffffffffffffffffffffffffffffffff1916145b806106d357506106d282611f37565b5b9050919050565b6040518060400160405280600781526020017f444338204e46540000000000000000000000000000000000000000000000000081525081565b6060600060046000848152602001908152602001600020805461073590615316565b80601f016020809104026020016040519081016040528092919081815260200182805461076190615316565b80156107ae5780601f10610783576101008083540402835291602001916107ae565b820191906000526020600020905b81548152906001019060200180831161079157829003601f168201915b5050505050905060008151116107cc576107c783611ea3565b6107f0565b6003816040516020016107e0929190614842565b6040516020818303038152906040525b915050919050565b610800611fa1565b73ffffffffffffffffffffffffffffffffffffffff168573ffffffffffffffffffffffffffffffffffffffff161480610846575061084585610840611fa1565b611a9f565b5b610885576040517f08c379a000000000000000000000000000000000000000000000000000000000815260040161087c90614b72565b60405180910390fd5b6108928585858585611fa9565b5050505050565b3373ffffffffffffffffffffffffffffffffffffffff166009600083815260200190815260200160002060010160009054906101000a900473ffffffffffffffffffffffffffffffffffffffff1673ffffffffffffffffffffffffffffffffffffffff161461093d576040517f08c379a000000000000000000000000000000000000000000000000000000000815260040161093490614bd2565b60405180910390fd5b336009600083815260200190815260200160002060010160006101000a81548173ffffffffffffffffffffffffffffffffffffffff021916908373ffffffffffffffffffffffffffffffffffffffff160217905550336009600083815260200190815260200160002060020160006101000a81548173ffffffffffffffffffffffffffffffffffffffff021916908373ffffffffffffffffffffffffffffffffffffffff1602179055506109f160066122cb565b600760039054906101000a900473ffffffffffffffffffffffffffffffffffffffff1673ffffffffffffffffffffffffffffffffffffffff166108fc349081150290604051600060405180830381858888f19350505050158015610a59573d6000803e3d6000fd5b50610a99600760039054906101000a900473ffffffffffffffffffffffffffffffffffffffff163383600160405180602001604052806000815250611b33565b7f436401c8cc3993c04ce3d90d0af124e2c27546b6d64db6fdd787b87259839bf58134604051610aca929190614ea6565b60405180910390a150565b60606000600667ffffffffffffffff811115610af457610af36154af565b5b604051908082528060200260200182016040528015610b2d57816020015b610b1a6138e9565b815260200190600190039081610b125790505b50905060005b6006811015610c5457600181620186a0610b4d9190615103565b610b579190615103565b828281518110610b6a57610b69615480565b5b602002602001015160000181815250503073ffffffffffffffffffffffffffffffffffffffff1662fdd58e85600184620186a0610ba79190615103565b610bb19190615103565b6040518363ffffffff1660e01b8152600401610bce929190614866565b60206040518083038186803b158015610be657600080fd5b505afa158015610bfa573d6000803e3d6000fd5b505050506040513d601f19601f82011682018060405250810190610c1e9190613fdb565b828281518110610c3157610c30615480565b5b602002602001015160200181815250508080610c4c90615379565b915050610b33565b5080915050919050565b60608151835114610ca4576040517f08c379a0000000000000000000000000000000000000000000000000000000008152600401610c9b90614cf2565b60405180910390fd5b6000835167ffffffffffffffff811115610cc157610cc06154af565b5b604051908082528060200260200182016040528015610cef5781602001602082028036833780820191505090505b50905060005b8451811015610d6c57610d3c858281518110610d1457610d13615480565b5b6020026020010151858381518110610d2f57610d2e615480565b5b602002602001015161052f565b828281518110610d4f57610d4e615480565b5b60200260200101818152505080610d6590615379565b9050610cf5565b508091505092915050565b60011515600760029054906101000a900460ff161515148015610dad575060011515600760009054906101000a900460ff161515145b610dec576040517f08c379a0000000000000000000000000000000000000000000000000000000008152600401610de390614cb2565b60405180910390fd5b60068111158015610dfe575060058110155b610e3d576040517f08c379a0000000000000000000000000000000000000000000000000000000008152600401610e3490614c12565b60405180910390fd5b600760039054906101000a900473ffffffffffffffffffffffffffffffffffffffff1673ffffffffffffffffffffffffffffffffffffffff163373ffffffffffffffffffffffffffffffffffffffff161415610ece576040517f08c379a0000000000000000000000000000000000000000000000000000000008152600401610ec590614c92565b60405180910390fd5b6000610ed982612327565b9050600066d529ae9e8600008260400151610ef4919061518a565b905080341015610f39576040517f08c379a0000000000000000000000000000000000000000000000000000000008152600401610f3090614d52565b60405180910390fd5b610f428261244d565b600760039054906101000a900473ffffffffffffffffffffffffffffffffffffffff1673ffffffffffffffffffffffffffffffffffffffff166108fc349081150290604051600060405180830381858888f19350505050158015610faa573d6000803e3d6000fd5b50505050565b6000610fbc600561256f565b905090565b6000803073ffffffffffffffffffffffffffffffffffffffff1662fdd58e33856040518363ffffffff1660e01b8152600401610ffe929190614951565b60206040518083038186803b15801561101657600080fd5b505afa15801561102a573d6000803e3d6000fd5b505050506040513d601f19601f8201168201806040525081019061104e9190613fdb565b14159050919050565b60011515600760019054906101000a900460ff161515146110ad576040517f08c379a00000000000000000000000000000000000000000000000000000000081526004016110a490614c52565b60405180910390fd5b600681111580156110bf575060018110155b6110fe576040517f08c379a00000000000000000000000000000000000000000000000000000000081526004016110f590614c32565b60405180910390fd5b600061110982612327565b905060003073ffffffffffffffffffffffffffffffffffffffff1662fdd58e3384600001516040518363ffffffff1660e01b815260040161114b929190614951565b60206040518083038186803b15801561116357600080fd5b505afa158015611177573d6000803e3d6000fd5b505050506040513d601f19601f8201168201806040525081019061119b9190613fdb565b116111db576040517f08c379a00000000000000000000000000000000000000000000000000000000081526004016111d290614c72565b60405180910390fd5b6111eb338260000151600161257d565b600760039054906101000a900473ffffffffffffffffffffffffffffffffffffffff1673ffffffffffffffffffffffffffffffffffffffff166108fc349081150290604051600060405180830381858888f19350505050158015611253573d6000803e3d6000fd5b5061126181604001516127c4565b7f72b03113f754b5eb3567dd572f07bc97ca831bcdea05e02f39cec196c9a2b244816000015134604051611296929190614e2e565b60405180910390a15050565b6112ae82338384612ad4565b6112cb338284600160405180602001604052806000815250611b33565b7f436401c8cc3993c04ce3d90d0af124e2c27546b6d64db6fdd787b87259839bf582346040516112fc929190614e6a565b60405180910390a15050565b6113128282612c28565b5050565b6060600080611325600561256f565b905060008167ffffffffffffffff811115611343576113426154af565b5b6040519080825280602002602001820160405280156113715781602001602082028036833780820191505090505b50905060005b82811015611444578573ffffffffffffffffffffffffffffffffffffffff16600960006001846113a79190615103565b815260200190815260200160002060020160009054906101000a900473ffffffffffffffffffffffffffffffffffffffff1673ffffffffffffffffffffffffffffffffffffffff161415611431576001816114029190615103565b82858151811061141557611414615480565b5b60200260200101818152505060018461142e9190615103565b93505b808061143c90615379565b915050611377565b50809350505050919050565b61146261145b611fa1565b8383612c94565b5050565b600060096000838152602001908152602001600020600401549050803410156114c4576040517f08c379a00000000000000000000000000000000000000000000000000000000081526004016114bb90614a72565b60405180910390fd5b60006009600084815260200190815260200160002060010160009054906101000a900473ffffffffffffffffffffffffffffffffffffffff16905061152d83600760039054906101000a900473ffffffffffffffffffffffffffffffffffffffff163333612ad4565b61153760066122cb565b60006064600a34611548919061518a565b6115529190615159565b90506000813461156291906151e4565b90506115d9600760039054906101000a900473ffffffffffffffffffffffffffffffffffffffff166009600088815260200190815260200160002060020160009054906101000a900473ffffffffffffffffffffffffffffffffffffffff1687600160405180602001604052806000815250611b33565b600760039054906101000a900473ffffffffffffffffffffffffffffffffffffffff1673ffffffffffffffffffffffffffffffffffffffff166108fc839081150290604051600060405180830381858888f19350505050158015611641573d6000803e3d6000fd5b508273ffffffffffffffffffffffffffffffffffffffff166108fc829081150290604051600060405180830381858888f19350505050158015611688573d6000803e3d6000fd5b507f436401c8cc3993c04ce3d90d0af124e2c27546b6d64db6fdd787b87259839bf585826040516116ba929190614db6565b60405180910390a15050505050565b600760039054906101000a900473ffffffffffffffffffffffffffffffffffffffff1673ffffffffffffffffffffffffffffffffffffffff163373ffffffffffffffffffffffffffffffffffffffff1614611759576040517f08c379a000000000000000000000000000000000000000000000000000000000815260040161175090614b12565b60405180910390fd5b611762816127c4565b50565b60001515600760029054906101000a900460ff16151514801561179b575060011515600760009054906101000a900460ff161515145b6117da576040517f08c379a00000000000000000000000000000000000000000000000000000000081526004016117d190614cb2565b60405180910390fd5b600481111580156117ec575060018110155b61182b576040517f08c379a000000000000000000000000000000000000000000000000000000000815260040161182290614c32565b60405180910390fd5b600760039054906101000a900473ffffffffffffffffffffffffffffffffffffffff1673ffffffffffffffffffffffffffffffffffffffff163373ffffffffffffffffffffffffffffffffffffffff1614156118bc576040517f08c379a00000000000000000000000000000000000000000000000000000000081526004016118b390614c92565b60405180910390fd5b60006118c782612327565b9050600067011c37937e08000082604001516118e3919061518a565b905080341015611928576040517f08c379a000000000000000000000000000000000000000000000000000000000815260040161191f90614d52565b60405180910390fd5b6119318261244d565b600760039054906101000a900473ffffffffffffffffffffffffffffffffffffffff1673ffffffffffffffffffffffffffffffffffffffff166108fc349081150290604051600060405180830381858888f19350505050158015611999573d6000803e3d6000fd5b50505050565b600760039054906101000a900473ffffffffffffffffffffffffffffffffffffffff1673ffffffffffffffffffffffffffffffffffffffff163373ffffffffffffffffffffffffffffffffffffffff1614611a2f576040517f08c379a0000000000000000000000000000000000000000000000000000000008152600401611a2690614a92565b60405180910390fd5b6001821415611a575780600760006101000a81548160ff021916908315150217905550611a9b565b6002821415611a7f5780600760016101000a81548160ff021916908315150217905550611a9a565b80600760026101000a81548160ff0219169083151502179055505b5b5050565b6000600160008473ffffffffffffffffffffffffffffffffffffffff1673ffffffffffffffffffffffffffffffffffffffff16815260200190815260200160002060008373ffffffffffffffffffffffffffffffffffffffff1673ffffffffffffffffffffffffffffffffffffffff16815260200190815260200160002060009054906101000a900460ff16905092915050565b611b3b611fa1565b73ffffffffffffffffffffffffffffffffffffffff168573ffffffffffffffffffffffffffffffffffffffff161480611b815750611b8085611b7b611fa1565b611a9f565b5b611bc0576040517f08c379a0000000000000000000000000000000000000000000000000000000008152600401611bb790614b32565b60405180910390fd5b611bcd8585858585612e01565b5050505050565b611c02823333600760039054906101000a900473ffffffffffffffffffffffffffffffffffffffff16612ad4565b670de0b6b3a764000081611c16919061518a565b6009600084815260200190815260200160002060040181905550611c3a600661309d565b600760039054906101000a900473ffffffffffffffffffffffffffffffffffffffff1673ffffffffffffffffffffffffffffffffffffffff166108fc349081150290604051600060405180830381858888f19350505050158015611ca2573d6000803e3d6000fd5b50611ce233600760039054906101000a900473ffffffffffffffffffffffffffffffffffffffff1684600160405180602001604052806000815250611b33565b7f436401c8cc3993c04ce3d90d0af124e2c27546b6d64db6fdd787b87259839bf58234604051611d13929190614ee2565b60405180910390a15050565b60606000821415611d67576040518060400160405280600181526020017f30000000000000000000000000000000000000000000000000000000000000008152509050611e7b565b600082905060005b60008214611d99578080611d8290615379565b915050600a82611d929190615159565b9150611d6f565b60008167ffffffffffffffff811115611db557611db46154af565b5b6040519080825280601f01601f191660200182016040528015611de75781602001600182028036833780820191505090505b5090505b60008514611e7457600182611e0091906151e4565b9150600a85611e0f91906153c2565b6030611e1b9190615103565b60f81b818381518110611e3157611e30615480565b5b60200101907effffffffffffffffffffffffffffffffffffffffffffffffffffffffffffff1916908160001a905350600a85611e6d9190615159565b9450611deb565b8093505050505b919050565b6000808273ffffffffffffffffffffffffffffffffffffffff163b119050919050565b606060028054611eb290615316565b80601f0160208091040260200160405190810160405280929190818152602001828054611ede90615316565b8015611f2b5780601f10611f0057610100808354040283529160200191611f2b565b820191906000526020600020905b815481529060010190602001808311611f0e57829003601f168201915b50505050509050919050565b60007f01ffc9a7000000000000000000000000000000000000000000000000000000007bffffffffffffffffffffffffffffffffffffffffffffffffffffffff1916827bffffffffffffffffffffffffffffffffffffffffffffffffffffffff1916149050919050565b600033905090565b8151835114611fed576040517f08c379a0000000000000000000000000000000000000000000000000000000008152600401611fe490614d12565b60405180910390fd5b600073ffffffffffffffffffffffffffffffffffffffff168473ffffffffffffffffffffffffffffffffffffffff16141561205d576040517f08c379a000000000000000000000000000000000000000000000000000000000815260040161205490614b52565b60405180910390fd5b6000612067611fa1565b90506120778187878787876130b3565b60005b845181101561222857600085828151811061209857612097615480565b5b6020026020010151905060008583815181106120b7576120b6615480565b5b60200260200101519050600080600084815260200190815260200160002060008b73ffffffffffffffffffffffffffffffffffffffff1673ffffffffffffffffffffffffffffffffffffffff16815260200190815260200160002054905081811015612158576040517f08c379a000000000000000000000000000000000000000000000000000000000815260040161214f90614bb2565b60405180910390fd5b81810360008085815260200190815260200160002060008c73ffffffffffffffffffffffffffffffffffffffff1673ffffffffffffffffffffffffffffffffffffffff168152602001908152602001600020819055508160008085815260200190815260200160002060008b73ffffffffffffffffffffffffffffffffffffffff1673ffffffffffffffffffffffffffffffffffffffff168152602001908152602001600020600082825461220d9190615103565b925050819055505050508061222190615379565b905061207a565b508473ffffffffffffffffffffffffffffffffffffffff168673ffffffffffffffffffffffffffffffffffffffff168273ffffffffffffffffffffffffffffffffffffffff167f4a39dc06d4c0dbc64b70af90fd698a233a518aa5d07e595d983b8c0526c8f7fb878760405161229f9291906149be565b60405180910390a46122b58187878787876130bb565b6122c38187878787876130c3565b505050505050565b60008160000154905060008111612317576040517f08c379a000000000000000000000000000000000000000000000000000000000815260040161230e90614ab2565b60405180910390fd5b6001810382600001819055505050565b61232f6138e9565b600082620186a06123409190615103565b9050600060405180606001604052808381526020016000815260200160018152509050818160000181815250506001841415612386576001816040018181525050612443565b600284141561239f576005816040018181525050612442565b60038414156123b857600a816040018181525050612441565b60048414156123d1576032816040018181525050612440565b60058414156123ea57600181604001818152505061243f565b600684141561240357600281604001818152505061243e565b6040517f08c379a000000000000000000000000000000000000000000000000000000000815260040161243590614c12565b60405180910390fd5b5b5b5b5b5b8092505050919050565b6000612459600561256f565b82604001516124689190615103565b9050610bb88111156124af576040517f08c379a00000000000000000000000000000000000000000000000000000000081526004016124a690614bf2565b60405180910390fd5b6124cf3383600001516001604051806020016040528060008152506132aa565b60011515600760029054906101000a900460ff161515141561252d577f72b03113f754b5eb3567dd572f07bc97ca831bcdea05e02f39cec196c9a2b244826000015134604051612520929190614f1e565b60405180910390a161256b565b7f72b03113f754b5eb3567dd572f07bc97ca831bcdea05e02f39cec196c9a2b244826000015134604051612562929190614df2565b60405180910390a15b5050565b600081600001549050919050565b600073ffffffffffffffffffffffffffffffffffffffff168373ffffffffffffffffffffffffffffffffffffffff1614156125ed576040517f08c379a00000000000000000000000000000000000000000000000000000000081526004016125e490614b92565b60405180910390fd5b60006125f7611fa1565b905060006126048461345b565b905060006126118461345b565b9050612631838760008585604051806020016040528060008152506130b3565b600080600087815260200190815260200160002060008873ffffffffffffffffffffffffffffffffffffffff1673ffffffffffffffffffffffffffffffffffffffff168152602001908152602001600020549050848110156126c8576040517f08c379a00000000000000000000000000000000000000000000000000000000081526004016126bf90614af2565b60405180910390fd5b84810360008088815260200190815260200160002060008973ffffffffffffffffffffffffffffffffffffffff1673ffffffffffffffffffffffffffffffffffffffff16815260200190815260200160002081905550600073ffffffffffffffffffffffffffffffffffffffff168773ffffffffffffffffffffffffffffffffffffffff168573ffffffffffffffffffffffffffffffffffffffff167fc3d58168c5ae7397731d063d5bbf3d657854427343f4c083240f7aacaa2d0f628989604051612795929190614d8d565b60405180910390a46127bb848860008686604051806020016040528060008152506130bb565b50505050505050565b60008167ffffffffffffffff8111156127e0576127df6154af565b5b60405190808252806020026020018201604052801561280e5781602001602082028036833780820191505090505b50905060008267ffffffffffffffff81111561282d5761282c6154af565b5b60405190808252806020026020018201604052801561285b5781602001602082028036833780820191505090505b509050600061286a600561256f565b846128759190615103565b9050610bb88111156128bc576040517f08c379a00000000000000000000000000000000000000000000000000000000081526004016128b390614bf2565b60405180910390fd5b60005b84811015612a8c576128d1600561309d565b60006128dd600561256f565b9050808583815181106128f3576128f2615480565b5b602002602001018181525050600184838151811061291457612913615480565b5b6020026020010181815250506000600861292d83611d1f565b60405160200161293e929190614842565b60405160208183030381529060405290506129598282611308565b6040518060a001604052808381526020013373ffffffffffffffffffffffffffffffffffffffff1681526020013373ffffffffffffffffffffffffffffffffffffffff16815260200167011c37937e08000081526020016000815250600960008481526020019081526020016000206000820151816000015560208201518160010160006101000a81548173ffffffffffffffffffffffffffffffffffffffff021916908373ffffffffffffffffffffffffffffffffffffffff16021790555060408201518160020160006101000a81548173ffffffffffffffffffffffffffffffffffffffff021916908373ffffffffffffffffffffffffffffffffffffffff160217905550606082015181600301556080820151816004015590505050508080612a8490615379565b9150506128bf565b50612ace3384846040518060400160405280600381526020017f30783000000000000000000000000000000000000000000000000000000000008152506134d5565b50505050565b8273ffffffffffffffffffffffffffffffffffffffff166009600086815260200190815260200160002060020160009054906101000a900473ffffffffffffffffffffffffffffffffffffffff1673ffffffffffffffffffffffffffffffffffffffff1614612b78576040517f08c379a0000000000000000000000000000000000000000000000000000000008152600401612b6f90614bd2565b60405180910390fd5b816009600086815260200190815260200160002060010160006101000a81548173ffffffffffffffffffffffffffffffffffffffff021916908373ffffffffffffffffffffffffffffffffffffffff160217905550806009600086815260200190815260200160002060020160006101000a81548173ffffffffffffffffffffffffffffffffffffffff021916908373ffffffffffffffffffffffffffffffffffffffff16021790555050505050565b80600460008481526020019081526020016000209080519060200190612c4f92919061390a565b50817f6bb7ff708619ba0610cba295a58592e0451dee2622938c8755667688daf3529b612c7b84610713565b604051612c889190614a10565b60405180910390a25050565b8173ffffffffffffffffffffffffffffffffffffffff168373ffffffffffffffffffffffffffffffffffffffff161415612d03576040517f08c379a0000000000000000000000000000000000000000000000000000000008152600401612cfa90614cd2565b60405180910390fd5b80600160008573ffffffffffffffffffffffffffffffffffffffff1673ffffffffffffffffffffffffffffffffffffffff16815260200190815260200160002060008473ffffffffffffffffffffffffffffffffffffffff1673ffffffffffffffffffffffffffffffffffffffff16815260200190815260200160002060006101000a81548160ff0219169083151502179055508173ffffffffffffffffffffffffffffffffffffffff168373ffffffffffffffffffffffffffffffffffffffff167f17307eab39ab6107e8899845ad3d59bd9653f200f220920489ca2b5937696c3183604051612df491906149f5565b60405180910390a3505050565b600073ffffffffffffffffffffffffffffffffffffffff168473ffffffffffffffffffffffffffffffffffffffff161415612e71576040517f08c379a0000000000000000000000000000000000000000000000000000000008152600401612e6890614b52565b60405180910390fd5b6000612e7b611fa1565b90506000612e888561345b565b90506000612e958561345b565b9050612ea58389898585896130b3565b600080600088815260200190815260200160002060008a73ffffffffffffffffffffffffffffffffffffffff1673ffffffffffffffffffffffffffffffffffffffff16815260200190815260200160002054905085811015612f3c576040517f08c379a0000000000000000000000000000000000000000000000000000000008152600401612f3390614bb2565b60405180910390fd5b85810360008089815260200190815260200160002060008b73ffffffffffffffffffffffffffffffffffffffff1673ffffffffffffffffffffffffffffffffffffffff168152602001908152602001600020819055508560008089815260200190815260200160002060008a73ffffffffffffffffffffffffffffffffffffffff1673ffffffffffffffffffffffffffffffffffffffff1681526020019081526020016000206000828254612ff19190615103565b925050819055508773ffffffffffffffffffffffffffffffffffffffff168973ffffffffffffffffffffffffffffffffffffffff168573ffffffffffffffffffffffffffffffffffffffff167fc3d58168c5ae7397731d063d5bbf3d657854427343f4c083240f7aacaa2d0f628a8a60405161306e929190614d8d565b60405180910390a4613084848a8a86868a6130bb565b613092848a8a8a8a8a613702565b505050505050505050565b6001816000016000828254019250508190555050565b505050505050565b505050505050565b6130e28473ffffffffffffffffffffffffffffffffffffffff16611e80565b156132a2578373ffffffffffffffffffffffffffffffffffffffff1663bc197c8187878686866040518663ffffffff1660e01b815260040161312895949392919061488f565b602060405180830381600087803b15801561314257600080fd5b505af192505050801561317357506040513d601f19601f820116820180604052508101906131709190613f81565b60015b6132195761317f6154de565b806308c379a014156131dc5750613194615c94565b8061319f57506131de565b806040517f08c379a00000000000000000000000000000000000000000000000000000000081526004016131d39190614a10565b60405180910390fd5b505b6040517f08c379a000000000000000000000000000000000000000000000000000000000815260040161321090614a32565b60405180910390fd5b63bc197c8160e01b7bffffffffffffffffffffffffffffffffffffffffffffffffffffffff1916817bffffffffffffffffffffffffffffffffffffffffffffffffffffffff1916146132a0576040517f08c379a000000000000000000000000000000000000000000000000000000000815260040161329790614a52565b60405180910390fd5b505b505050505050565b600073ffffffffffffffffffffffffffffffffffffffff168473ffffffffffffffffffffffffffffffffffffffff16141561331a576040517f08c379a000000000000000000000000000000000000000000000000000000000815260040161331190614d32565b60405180910390fd5b6000613324611fa1565b905060006133318561345b565b9050600061333e8561345b565b905061334f836000898585896130b3565b8460008088815260200190815260200160002060008973ffffffffffffffffffffffffffffffffffffffff1673ffffffffffffffffffffffffffffffffffffffff16815260200190815260200160002060008282546133ae9190615103565b925050819055508673ffffffffffffffffffffffffffffffffffffffff16600073ffffffffffffffffffffffffffffffffffffffff168473ffffffffffffffffffffffffffffffffffffffff167fc3d58168c5ae7397731d063d5bbf3d657854427343f4c083240f7aacaa2d0f62898960405161342c929190614d8d565b60405180910390a4613443836000898585896130bb565b61345283600089898989613702565b50505050505050565b60606000600167ffffffffffffffff81111561347a576134796154af565b5b6040519080825280602002602001820160405280156134a85781602001602082028036833780820191505090505b50905082816000815181106134c0576134bf615480565b5b60200260200101818152505080915050919050565b600073ffffffffffffffffffffffffffffffffffffffff168473ffffffffffffffffffffffffffffffffffffffff161415613545576040517f08c379a000000000000000000000000000000000000000000000000000000000815260040161353c90614d32565b60405180910390fd5b8151835114613589576040517f08c379a000000000000000000000000000000000000000000000000000000000815260040161358090614d12565b60405180910390fd5b6000613593611fa1565b90506135a4816000878787876130b3565b60005b845181101561365d578381815181106135c3576135c2615480565b5b60200260200101516000808784815181106135e1576135e0615480565b5b6020026020010151815260200190815260200160002060008873ffffffffffffffffffffffffffffffffffffffff1673ffffffffffffffffffffffffffffffffffffffff16815260200190815260200160002060008282546136439190615103565b92505081905550808061365590615379565b9150506135a7565b508473ffffffffffffffffffffffffffffffffffffffff16600073ffffffffffffffffffffffffffffffffffffffff168273ffffffffffffffffffffffffffffffffffffffff167f4a39dc06d4c0dbc64b70af90fd698a233a518aa5d07e595d983b8c0526c8f7fb87876040516136d59291906149be565b60405180910390a46136ec816000878787876130bb565b6136fb816000878787876130c3565b5050505050565b6137218473ffffffffffffffffffffffffffffffffffffffff16611e80565b156138e1578373ffffffffffffffffffffffffffffffffffffffff1663f23a6e6187878686866040518663ffffffff1660e01b81526004016137679594939291906148f7565b602060405180830381600087803b15801561378157600080fd5b505af19250505080156137b257506040513d601f19601f820116820180604052508101906137af9190613f81565b60015b613858576137be6154de565b806308c379a0141561381b57506137d3615c94565b806137de575061381d565b806040517f08c379a00000000000000000000000000000000000000000000000000000000081526004016138129190614a10565b60405180910390fd5b505b6040517f08c379a000000000000000000000000000000000000000000000000000000000815260040161384f90614a32565b60405180910390fd5b63f23a6e6160e01b7bffffffffffffffffffffffffffffffffffffffffffffffffffffffff1916817bffffffffffffffffffffffffffffffffffffffffffffffffffffffff1916146138df576040517f08c379a00000000000000000000000000000000000000000000000000000000081526004016138d690614a52565b60405180910390fd5b505b505050505050565b60405180606001604052806000815260200160008152602001600081525090565b82805461391690615316565b90600052602060002090601f016020900481019282613938576000855561397f565b82601f1061395157805160ff191683800117855561397f565b8280016001018555821561397f579182015b8281111561397e578251825591602001919060010190613963565b5b50905061398c9190613990565b5090565b5b808211156139a9576000816000905550600101613991565b5090565b60006139c06139bb84614f7f565b614f5a565b905080838252602082019050828560208602820111156139e3576139e2615505565b5b60005b85811015613a1357816139f98882613b11565b8452602084019350602083019250506001810190506139e6565b5050509392505050565b6000613a30613a2b84614fab565b614f5a565b90508083825260208201905082856020860282011115613a5357613a52615505565b5b60005b85811015613a835781613a698882613c32565b845260208401935060208301925050600181019050613a56565b5050509392505050565b6000613aa0613a9b84614fd7565b614f5a565b905082815260208101848484011115613abc57613abb61550a565b5b613ac78482856152d4565b509392505050565b6000613ae2613add84615008565b614f5a565b905082815260208101848484011115613afe57613afd61550a565b5b613b098482856152d4565b509392505050565b600081359050613b2081615d2a565b92915050565b600081359050613b3581615d41565b92915050565b600082601f830112613b5057613b4f615500565b5b8135613b608482602086016139ad565b91505092915050565b600082601f830112613b7e57613b7d615500565b5b8135613b8e848260208601613a1d565b91505092915050565b600081359050613ba681615d58565b92915050565b600081359050613bbb81615d6f565b92915050565b600081519050613bd081615d6f565b92915050565b600082601f830112613beb57613bea615500565b5b8135613bfb848260208601613a8d565b91505092915050565b600082601f830112613c1957613c18615500565b5b8135613c29848260208601613acf565b91505092915050565b600081359050613c4181615d86565b92915050565b600081519050613c5681615d86565b92915050565b600060208284031215613c7257613c71615514565b5b6000613c8084828501613b11565b91505092915050565b600060208284031215613c9f57613c9e615514565b5b6000613cad84828501613b26565b91505092915050565b60008060408385031215613ccd57613ccc615514565b5b6000613cdb85828601613b11565b9250506020613cec85828601613b11565b9150509250929050565b600080600080600060a08688031215613d1257613d11615514565b5b6000613d2088828901613b11565b9550506020613d3188828901613b11565b945050604086013567ffffffffffffffff811115613d5257613d5161550f565b5b613d5e88828901613b69565b935050606086013567ffffffffffffffff811115613d7f57613d7e61550f565b5b613d8b88828901613b69565b925050608086013567ffffffffffffffff811115613dac57613dab61550f565b5b613db888828901613bd6565b9150509295509295909350565b600080600080600060a08688031215613de157613de0615514565b5b6000613def88828901613b11565b9550506020613e0088828901613b11565b9450506040613e1188828901613c32565b9350506060613e2288828901613c32565b925050608086013567ffffffffffffffff811115613e4357613e4261550f565b5b613e4f88828901613bd6565b9150509295509295909350565b60008060408385031215613e7357613e72615514565b5b6000613e8185828601613b11565b9250506020613e9285828601613b97565b9150509250929050565b60008060408385031215613eb357613eb2615514565b5b6000613ec185828601613b11565b9250506020613ed285828601613c32565b9150509250929050565b60008060408385031215613ef357613ef2615514565b5b600083013567ffffffffffffffff811115613f1157613f1061550f565b5b613f1d85828601613b3b565b925050602083013567ffffffffffffffff811115613f3e57613f3d61550f565b5b613f4a85828601613b69565b9150509250929050565b600060208284031215613f6a57613f69615514565b5b6000613f7884828501613bac565b91505092915050565b600060208284031215613f9757613f96615514565b5b6000613fa584828501613bc1565b91505092915050565b600060208284031215613fc457613fc3615514565b5b6000613fd284828501613c32565b91505092915050565b600060208284031215613ff157613ff0615514565b5b6000613fff84828501613c47565b91505092915050565b6000806040838503121561401f5761401e615514565b5b600061402d85828601613c32565b925050602061403e85828601613b11565b9150509250929050565b6000806040838503121561405f5761405e615514565b5b600061406d85828601613c32565b925050602061407e85828601613b97565b9150509250929050565b6000806040838503121561409f5761409e615514565b5b60006140ad85828601613c32565b925050602083013567ffffffffffffffff8111156140ce576140cd61550f565b5b6140da85828601613c04565b9150509250929050565b600080604083850312156140fb576140fa615514565b5b600061410985828601613c32565b925050602061411a85828601613c32565b9150509250929050565b600061413083836147e2565b60608301905092915050565b60006141488383614824565b60208301905092915050565b61415d8161529e565b82525050565b61416c81615218565b82525050565b600061417d8261506e565b61418781856150b4565b935061419283615039565b8060005b838110156141c35781516141aa8882614124565b97506141b58361509a565b925050600181019050614196565b5085935050505092915050565b60006141db82615079565b6141e581856150c5565b93506141f083615049565b8060005b83811015614221578151614208888261413c565b9750614213836150a7565b9250506001810190506141f4565b5085935050505092915050565b6142378161523c565b82525050565b600061424882615084565b61425281856150d6565b93506142628185602086016152e3565b61426b81615519565b840191505092915050565b60006142818261508f565b61428b81856150e7565b935061429b8185602086016152e3565b6142a481615519565b840191505092915050565b60006142ba8261508f565b6142c481856150f8565b93506142d48185602086016152e3565b80840191505092915050565b600081546142ed81615316565b6142f781866150f8565b94506001821660008114614312576001811461432357614356565b60ff19831686528186019350614356565b61432c85615059565b60005b8381101561434e5781548189015260018201915060208101905061432f565b838801955050505b50505092915050565b600061436c6034836150e7565b915061437782615537565b604082019050919050565b600061438f600c836150e7565b915061439a82615586565b602082019050919050565b60006143b26028836150e7565b91506143bd826155af565b604082019050919050565b60006143d56015836150e7565b91506143e0826155fe565b602082019050919050565b60006143f86016836150e7565b915061440382615627565b602082019050919050565b600061441b601b836150e7565b915061442682615650565b602082019050919050565b600061443e602b836150e7565b915061444982615679565b604082019050919050565b60006144616024836150e7565b915061446c826156c8565b604082019050919050565b60006144846010836150e7565b915061448f82615717565b602082019050919050565b60006144a76029836150e7565b91506144b282615740565b604082019050919050565b60006144ca6025836150e7565b91506144d58261578f565b604082019050919050565b60006144ed6032836150e7565b91506144f8826157de565b604082019050919050565b60006145106023836150e7565b915061451b8261582d565b604082019050919050565b6000614533602a836150e7565b915061453e8261587c565b604082019050919050565b6000614556602a836150e7565b9150614561826158cb565b604082019050919050565b60006145796019836150e7565b91506145848261591a565b602082019050919050565b600061459c600b836150e7565b91506145a782615943565b602082019050919050565b60006145bf600a836150e7565b91506145ca8261596c565b602082019050919050565b60006145e26011836150e7565b91506145ed82615995565b602082019050919050565b6000614605600e836150e7565b9150614610826159be565b602082019050919050565b60006146286008836150e7565b9150614633826159e7565b602082019050919050565b600061464b6014836150e7565b915061465682615a10565b602082019050919050565b600061466e600c836150e7565b915061467982615a39565b602082019050919050565b6000614691600b836150e7565b915061469c82615a62565b602082019050919050565b60006146b4600c836150e7565b91506146bf82615a8b565b602082019050919050565b60006146d7600e836150e7565b91506146e282615ab4565b602082019050919050565b60006146fa6029836150e7565b915061470582615add565b604082019050919050565b600061471d6029836150e7565b915061472882615b2c565b604082019050919050565b60006147406028836150e7565b915061474b82615b7b565b604082019050919050565b60006147636021836150e7565b915061476e82615bca565b604082019050919050565b60006147866008836150e7565b915061479182615c19565b602082019050919050565b60006147a9600f836150e7565b91506147b482615c42565b602082019050919050565b60006147cc600c836150e7565b91506147d782615c6b565b602082019050919050565b6060820160008201516147f86000850182614824565b50602082015161480b6020850182614824565b50604082015161481e6040850182614824565b50505050565b61482d81615294565b82525050565b61483c81615294565b82525050565b600061484e82856142e0565b915061485a82846142af565b91508190509392505050565b600060408201905061487b6000830185614154565b6148886020830184614833565b9392505050565b600060a0820190506148a46000830188614163565b6148b16020830187614163565b81810360408301526148c381866141d0565b905081810360608301526148d781856141d0565b905081810360808301526148eb818461423d565b90509695505050505050565b600060a08201905061490c6000830188614163565b6149196020830187614163565b6149266040830186614833565b6149336060830185614833565b8181036080830152614945818461423d565b90509695505050505050565b60006040820190506149666000830185614163565b6149736020830184614833565b9392505050565b600060208201905081810360008301526149948184614172565b905092915050565b600060208201905081810360008301526149b681846141d0565b905092915050565b600060408201905081810360008301526149d881856141d0565b905081810360208301526149ec81846141d0565b90509392505050565b6000602082019050614a0a600083018461422e565b92915050565b60006020820190508181036000830152614a2a8184614276565b905092915050565b60006020820190508181036000830152614a4b8161435f565b9050919050565b60006020820190508181036000830152614a6b816143a5565b9050919050565b60006020820190508181036000830152614a8b816143c8565b9050919050565b60006020820190508181036000830152614aab816143eb565b9050919050565b60006020820190508181036000830152614acb8161440e565b9050919050565b60006020820190508181036000830152614aeb81614431565b9050919050565b60006020820190508181036000830152614b0b81614454565b9050919050565b60006020820190508181036000830152614b2b81614477565b9050919050565b60006020820190508181036000830152614b4b8161449a565b9050919050565b60006020820190508181036000830152614b6b816144bd565b9050919050565b60006020820190508181036000830152614b8b816144e0565b9050919050565b60006020820190508181036000830152614bab81614503565b9050919050565b60006020820190508181036000830152614bcb81614526565b9050919050565b60006020820190508181036000830152614beb81614549565b9050919050565b60006020820190508181036000830152614c0b8161456c565b9050919050565b60006020820190508181036000830152614c2b8161458f565b9050919050565b60006020820190508181036000830152614c4b816145b2565b9050919050565b60006020820190508181036000830152614c6b816145d5565b9050919050565b60006020820190508181036000830152614c8b8161463e565b9050919050565b60006020820190508181036000830152614cab81614661565b9050919050565b60006020820190508181036000830152614ccb81614684565b9050919050565b60006020820190508181036000830152614ceb816146ed565b9050919050565b60006020820190508181036000830152614d0b81614710565b9050919050565b60006020820190508181036000830152614d2b81614733565b9050919050565b60006020820190508181036000830152614d4b81614756565b9050919050565b60006020820190508181036000830152614d6b816147bf565b9050919050565b6000602082019050614d876000830184614833565b92915050565b6000604082019050614da26000830185614833565b614daf6020830184614833565b9392505050565b6000606082019050614dcb6000830185614833565b614dd86020830184614833565b8181036040830152614de981614382565b90509392505050565b6000606082019050614e076000830185614833565b614e146020830184614833565b8181036040830152614e25816145f8565b90509392505050565b6000606082019050614e436000830185614833565b614e506020830184614833565b8181036040830152614e618161461b565b90509392505050565b6000606082019050614e7f6000830185614833565b614e8c6020830184614833565b8181036040830152614e9d816146a7565b90509392505050565b6000606082019050614ebb6000830185614833565b614ec86020830184614833565b8181036040830152614ed9816146ca565b90509392505050565b6000606082019050614ef76000830185614833565b614f046020830184614833565b8181036040830152614f1581614779565b90509392505050565b6000606082019050614f336000830185614833565b614f406020830184614833565b8181036040830152614f518161479c565b90509392505050565b6000614f64614f75565b9050614f708282615348565b919050565b6000604051905090565b600067ffffffffffffffff821115614f9a57614f996154af565b5b602082029050602081019050919050565b600067ffffffffffffffff821115614fc657614fc56154af565b5b602082029050602081019050919050565b600067ffffffffffffffff821115614ff257614ff16154af565b5b614ffb82615519565b9050602081019050919050565b600067ffffffffffffffff821115615023576150226154af565b5b61502c82615519565b9050602081019050919050565b6000819050602082019050919050565b6000819050602082019050919050565b60008190508160005260206000209050919050565b600081519050919050565b600081519050919050565b600081519050919050565b600081519050919050565b6000602082019050919050565b6000602082019050919050565b600082825260208201905092915050565b600082825260208201905092915050565b600082825260208201905092915050565b600082825260208201905092915050565b600081905092915050565b600061510e82615294565b915061511983615294565b9250827fffffffffffffffffffffffffffffffffffffffffffffffffffffffffffffffff0382111561514e5761514d6153f3565b5b828201905092915050565b600061516482615294565b915061516f83615294565b92508261517f5761517e615422565b5b828204905092915050565b600061519582615294565b91506151a083615294565b9250817fffffffffffffffffffffffffffffffffffffffffffffffffffffffffffffffff04831182151516156151d9576151d86153f3565b5b828202905092915050565b60006151ef82615294565b91506151fa83615294565b92508282101561520d5761520c6153f3565b5b828203905092915050565b600061522382615274565b9050919050565b600061523582615274565b9050919050565b60008115159050919050565b60007fffffffff0000000000000000000000000000000000000000000000000000000082169050919050565b600073ffffffffffffffffffffffffffffffffffffffff82169050919050565b6000819050919050565b60006152a9826152b0565b9050919050565b60006152bb826152c2565b9050919050565b60006152cd82615274565b9050919050565b82818337600083830152505050565b60005b838110156153015780820151818401526020810190506152e6565b83811115615310576000848401525b50505050565b6000600282049050600182168061532e57607f821691505b6020821081141561534257615341615451565b5b50919050565b61535182615519565b810181811067ffffffffffffffff821117156153705761536f6154af565b5b80604052505050565b600061538482615294565b91507fffffffffffffffffffffffffffffffffffffffffffffffffffffffffffffffff8214156153b7576153b66153f3565b5b600182019050919050565b60006153cd82615294565b91506153d883615294565b9250826153e8576153e7615422565b5b828206905092915050565b7f4e487b7100000000000000000000000000000000000000000000000000000000600052601160045260246000fd5b7f4e487b7100000000000000000000000000000000000000000000000000000000600052601260045260246000fd5b7f4e487b7100000000000000000000000000000000000000000000000000000000600052602260045260246000fd5b7f4e487b7100000000000000000000000000000000000000000000000000000000600052603260045260246000fd5b7f4e487b7100000000000000000000000000000000000000000000000000000000600052604160045260246000fd5b600060033d11156154fd5760046000803e6154fa60005161552a565b90505b90565b600080fd5b600080fd5b600080fd5b600080fd5b600080fd5b6000601f19601f8301169050919050565b60008160e01c9050919050565b7f455243313135353a207472616e7366657220746f206e6f6e204552433131353560008201527f526563656976657220696d706c656d656e746572000000000000000000000000602082015250565b7f50555243484153455f4e46540000000000000000000000000000000000000000600082015250565b7f455243313135353a204552433131353552656365697665722072656a6563746560008201527f6420746f6b656e73000000000000000000000000000000000000000000000000602082015250565b7f596f757220707269636520697320696e76616c69640000000000000000000000600082015250565b7f4f6e6c7920686f73742063616e20616c6c6f7720697400000000000000000000600082015250565b7f436f756e7465723a2064656372656d656e74206f766572666c6f770000000000600082015250565b7f455243313135353a2062616c616e636520717565727920666f7220746865207a60008201527f65726f2061646472657373000000000000000000000000000000000000000000602082015250565b7f455243313135353a206275726e20616d6f756e7420657863656564732062616c60008201527f616e636500000000000000000000000000000000000000000000000000000000602082015250565b7f596f7520617265206e6f7420686f737400000000000000000000000000000000600082015250565b7f455243313135353a2063616c6c6572206973206e6f74206f776e6572206e6f7260008201527f20617070726f7665640000000000000000000000000000000000000000000000602082015250565b7f455243313135353a207472616e7366657220746f20746865207a65726f20616460008201527f6472657373000000000000000000000000000000000000000000000000000000602082015250565b7f455243313135353a207472616e736665722063616c6c6572206973206e6f742060008201527f6f776e6572206e6f7220617070726f7665640000000000000000000000000000602082015250565b7f455243313135353a206275726e2066726f6d20746865207a65726f206164647260008201527f6573730000000000000000000000000000000000000000000000000000000000602082015250565b7f455243313135353a20696e73756666696369656e742062616c616e636520666f60008201527f72207472616e7366657200000000000000000000000000000000000000000000602082015250565b7f4f6e6c79206974656d206f776e65722063616e20706572666f726d207468697360008201527f206f7065726174696f6e00000000000000000000000000000000000000000000602082015250565b7f546f74616c20737570706c792068617320726561636865642e00000000000000600082015250565b7f4e6f207061636b6167652e000000000000000000000000000000000000000000600082015250565b7f4e6f207061636b61676500000000000000000000000000000000000000000000600082015250565b7f4e6f7420616c6c6f77206f70656e506b67000000000000000000000000000000600082015250565b7f4255595f5055424c49435f504b47000000000000000000000000000000000000600082015250565b7f4f50454e5f504b47000000000000000000000000000000000000000000000000600082015250565b7f596f752068617665206e6f207061636b6167652e000000000000000000000000600082015250565b7f596f752061726520686f73740000000000000000000000000000000000000000600082015250565b7f4e6f2073616c65206e6f77000000000000000000000000000000000000000000600082015250565b7f5452414e534645525f4e46540000000000000000000000000000000000000000600082015250565b7f43414e43454c5f4c495354494e47000000000000000000000000000000000000600082015250565b7f455243313135353a2073657474696e6720617070726f76616c2073746174757360008201527f20666f722073656c660000000000000000000000000000000000000000000000602082015250565b7f455243313135353a206163636f756e747320616e6420696473206c656e67746860008201527f206d69736d617463680000000000000000000000000000000000000000000000602082015250565b7f455243313135353a2069647320616e6420616d6f756e7473206c656e6774682060008201527f6d69736d61746368000000000000000000000000000000000000000000000000602082015250565b7f455243313135353a206d696e7420746f20746865207a65726f2061646472657360008201527f7300000000000000000000000000000000000000000000000000000000000000602082015250565b7f4c4953545f4e4654000000000000000000000000000000000000000000000000600082015250565b7f4255595f505249564154455f504b470000000000000000000000000000000000600082015250565b7f506b67206e6f7420667265650000000000000000000000000000000000000000600082015250565b600060443d1015615ca457615d27565b615cac614f75565b60043d036004823e80513d602482011167ffffffffffffffff82111715615cd4575050615d27565b808201805167ffffffffffffffff811115615cf25750505050615d27565b80602083010160043d038501811115615d0f575050505050615d27565b615d1e82602001850186615348565b82955050505050505b90565b615d3381615218565b8114615d3e57600080fd5b50565b615d4a8161522a565b8114615d5557600080fd5b50565b615d618161523c565b8114615d6c57600080fd5b50565b615d7881615248565b8114615d8357600080fd5b50565b615d8f81615294565b8114615d9a57600080fd5b5056fea264697066735822122076d2d4a10d9f2c40a3948e1c82cf7c1e8a0e979e985e66908db9e1b48794d64f64736f6c6343000807003368747470733a2f2f636f72652e6463382e696f2f6d6574612f64657461696c732f",
  "linkReferences": {},
  "deployedLinkReferences": {}
}